:100000000C94F6090C9492610C9467610C943C6119
:100010000C9411610C94E6600C94BB600C9490609D
:100020000C9465600C94270A0C94270A0C94270AF8
:100030000C94270A0C94270A0C94270A0C94270A7C
:100040000C94270A0C94A7620C94270A0C94270A94
:100050000C94D5620C94270A0C94270A0C941B600C
:100060000C94270A0C94E7610C94BD610C94270A48
:100070000C94270A0C94270A0C94270A0C94270A3C
:100080000C9479620C94270A0C94270A0C94270A82
:100090000C94270A0C94270A0C94270A0C94270A1C
:1000A0000C94270A0C94270A0C944B620C94270A90
:1000B0000C94270A0C94270A0C94270A0C941D62AE
:1000C0000C94270A0C94270A0C94270A0C94270AEC
:1000D0000C94270A0C94270A0C94270A0C94270ADC
:1000E0000C94270A036EDB363D9A9999993DABAA89
:1000F000AA2A3E000000803F084AD73B3BCE016E53
:1001000084BCBFFDC12F3D6C74319ABD56833DDA6E
:100110003D00C77F11BED9E4BB4C3E916BAAAABE7D
:10012000000000803F072C7AA5BA6CC590DA3B939B
:1001300065FC8BBC53F810FD3C5692834DBD879DEA
:100140003AB63DCBC9BF5BBE73DA0FC93F05A84CB9
:10015000CDB2D44EB93836A9020C50B99186880870
:100160003CA6AAAA2ABE000000803F0664EC1B3C05
:1001700004BC163E3BE5B93CC93C37C29E5A3D66BD
:100180000498083EEA69AAAA3E000000803F4E415A
:100190004E494E495459494E46CDCCCC3D0AD72301
:1001A0003C17B7D13877CC2B329595E6241FB14F49
:1001B0000A000020410000C84200401C4620BCBE8E
:1001C0004CCA1B0E5AAEC59D7400407A10F35A00FB
:1001D000A0724E18090010A5D4E80000E876481770
:1001E0000000E40B54020000CA9A3B000000E1F555
:1001F00005000080969800000040420F000000A01B
:100200008601000000102700000000E80300000045
:10021000006400000000000A00000000000100006F
:100220000000002C76D888DC674F0823DFC1DFAEE2
:1002300059E1B1B796E5E3E453C63AE651997696AB
:10024000E8E6C28426EB898C9B62ED407C6FFCEF74
:10025000BC9C9F40F2BAA56FA5F490055A2AF75CA2
:10026000936B6CF9676DC11BFCE0E40D47FEF52054
:10027000E6B500D0ED902E0300943577050080841C
:100280001E080000204E0A000000C80C3333333330
:100290000F986E12831141EF8D2114893BE655169C
:1002A000CFFEE6DB18D1844B381BF77C1D901DA4D4
:1002B000BBE424203284725E228100C9F124ECA1C7
:1002C000E53D273C49646C652C4D506F733A302CEA
:1002D000302C302C57506F733A302E3030302C3059
:1002E0002E3030302C302E3030303E004469726574
:1002F0006374696F6E2032202D204661696C004462
:100300006972656374696F6E2032202D20506173AD
:1003100073003C49646C652C4D506F733A302C303F
:100320002C302C57506F733A302E3030302C302E0A
:100330003030302C302E3030303E004469726563EE
:1003400074696F6E2031202D204661696C0044690C
:1003500072656374696F6E2031202D205061737354
:10036000003C49646C652C4D506F733A302C302C36
:10037000302C57506F733A302E3030302C302E30B6
:1003800030302C302E3030303E00206D6F746F7264
:100390003A0054657374696E672000206D6D00200B
:1003A000696E002B004D6573736167653A20506C70
:1003B000656173652061646A757374205A2D417894
:1003C000697320746F2061206465707468206F66A3
:1003D0002000496E76616C69642067636F646520F4
:1003E00049443A00454550524F4D207265616420A2
:1003F0006661696C2E205573696E6720646566615D
:10040000756C742073657474696E67732E00506C1C
:100410006561736520736574202431322C2024318A
:10042000332C202431392C20616E6420243230207A
:10043000746F206C6F6164206F6C6420706F7369DF
:1004400074696F6E20646174612E00496E76616C10
:1004500069642073746174656D656E7400426164D3
:10046000206E756D62657220666F726D61740065D5
:1004700072726F723A20006F6B00506C6561736529
:1004800020736574202431322C202431332C202415
:1004900031392C20616E642024323020746F206C3E
:1004A0006F616420706F736974696F6E2E004F6C9A
:1004B0006420706F736974696F6E20646174612069
:1004C00064657465637465642E005475726E696E3C
:1004D00067205370696E646C65204F6666005475C2
:1004E000726E696E67205370696E646C65204F6E22
:1004F000005475726E696E67205370696E646C6526
:10050000204F6666005475726E696E67205370697D
:100510006E646C65204F6E005475726E696E672054
:100520005370696E646C65204F6666005475726E18
:10053000696E67205370696E646C65204F6E006D44
:100540006D004D6561737572696E67206F757420FB
:10055000726967687420636861696E006D6D004D33
:100560006561737572696E67206F7574206C65665E
:100570007420636861696E004D61736C6F77205001
:1005800061757365640028456E64206F662042754E
:100590006666657229005C74005C72005C6E0042E5
:1005A000756666657220436F6E74656E74733A206B
:1005B0000042756666657220456E643A2000427599
:1005C0006666657220426567696E3A20004275660C
:1005D000666572204E756D626572206F66204C698B
:1005E0006E65733A200042756666657220557365C4
:1005F000643A2000427566666572206F76657266A1
:100600006C6F7721007265616479004772626C20BB
:1006100076312E3030002044657465637465640063
:1006200020544C453532303620000A504342207663
:10063000312E000A0A736F66742072657365742028
:10064000636F6D6D616E6465640A0A0054686520AD
:10065000426F6172642076657273696F6E206E7589
:100660006D6265722066726F6D2074686973204DCB
:100670006F746F7220436F6E74726F6C20626F6163
:10068000726420697320696E76616C69642E202D16
:100690002D2D28212121292D2D2D205175697420E2
:1006A000616E64206D616B6520737572652069747D
:1006B0002069732070726F7065726C792073656148
:1006C00074656420616E6420746861742074686568
:1006D00020636F72726563742076657273696F6EE2
:1006E000206F66206669726D77617265206973207C
:1006F0006C6F616465642E2E2E2000546865207333
:100700006C6564206973206E6F74206B6565706919
:100710006E6720757020776974682069747320652E
:100720007870656374656420706F736974696F6E47
:1007300020616E64206861732068616C7465642E4A
:1007400020436C69636B20746865202753746F7055
:100750002720627574746F6E20746F20636C6561FE
:10076000722074686520616C61726D2E204D6F720D
:100770006520696E666F726D6174696F6E20617459
:100780003A2068747470733A2F2F676974687562C1
:100790002E636F6D2F4D61736C6F77434E432F4601
:1007A00069726D776172652F77696B692F4B65652B
:1007B00070696E672D5570202000414C41524D3AB2
:1007C00020005D005B50453A002C57506F733A3063
:1007D0002E3030302C302E3030302C302E30303027
:1007E0003E002C002C0049646C652C4D506F733A10
:1007F0000050617573652C4D506F733A0053746FE0
:10080000702C4D506F733A003C002C002C002C00D3
:100810002C007265616479004772626C2076312E1B
:1008200030300046414B455F534552564F206F666E
:10083000660046414B455F534552564F206F6E0050
:100840002044657465637465640020544C453932F6
:100850003031200020544C45353230362000504392
:10086000422076312E00546F6F6C206368616E6792
:100870006520746F20746F6F6C200020746F6F2080
:1008800073686F7274202D2069676E6F7265642EB5
:1008900000436F6D6D616E64200020756E7375701E
:1008A000706F7274656420616E642069676E6F7228
:1008B00065642E00436F6D6D616E64204D00546F52
:1008C0006F6C204368616E67653A20506C65617398
:1008D0006520696E7365727420746F6F6C200046BA
:1008E00069726D776172652056657273696F6E20EB
:1008F000002000526573746F72696E6720646566CC
:1009000061756C7473004D6573736167653A20009F
:100910002028706F736974696F6E206572726F72D0
:1009200020616C61726D206C696D69742C206D6D35
:1009300029002028636861696E20746F6C6572619C
:100940006E63652C20726967687420636861696EE4
:100950002C206D6D290D0A2434323D002028636857
:1009600061696E20746F6C6572616E63652C206CBA
:1009700065667420636861696E2C206D6D290D0AAF
:100980002434313D00202850574D20667265717522
:10099000656E63792076616C756520313D33392C45
:1009A000303030487A2C20323D342C313030487A87
:1009B0002C20333D343930487A290D0A2434303D17
:1009C000002028636861696E206F766572207370FD
:1009D000726F636B6574290D0A2433393D0020283A
:1009E000636861696E2073616720636F727265630B
:1009F00074696F6E2076616C7565290D0A24333831
:100A00003D0020287A20617869732056656C6F63F9
:100A10006974792070726F706F7274696F6E616C37
:100A200020776569676874290D0A2433373D0020F3
:100A3000287A2061786973204B642056656C6F6357
:100A4000697479290D0A2433363D0020287A206103
:100A5000786973204B692056656C6F6369747929D6
:100A60000D0A2433353D0020287A206178697320EF
:100A70004B702056656C6F63697479290D0A2433B5
:100A8000343D0020287A206178697320506F7320EC
:100A900070726F706F7274696F6E616C20776569C8
:100AA000676874290D0A2433333D0020287A2061B9
:100AB000786973204B6420506F73290D0A243332F8
:100AC0003D0020287A2061786973204B6920506F9F
:100AD00073290D0A2433313D0020287A206178697A
:100AE00073204B7020506F73290D0A2433303D0062
:100AF00020286D61696E2056656C6F63697479207A
:100B000070726F706F7274696F6E616C2077656957
:100B1000676874290D0A2432393D0020286D616907
:100B20006E204B642056656C6F63697479290D0AD9
:100B30002432383D0020286D61696E204B692056B3
:100B4000656C6F63697479290D0A2432373D002082
:100B5000286D61696E204B702056656C6F636974F7
:100B600079290D0A2432363D0020286D61696E20F6
:100B7000506F732070726F706F7274696F6E616CFA
:100B800020776569676874290D0A2432353D002095
:100B9000286D61696E204B6420506F73290D0A2403
:100BA00032343D0020286D61696E204B6920506F02
:100BB00073290D0A2432333D0020286D61696E20AF
:100BC0004B7020506F73290D0A2432323D002028CB
:100BD0007A20617869732073746570732070657210
:100BE000207265766F6C7574696F6E290D0A2432F8
:100BF000313D0020287A206178697320646973741C
:100C0000616E6365202F20726F746174696F6E2945
:100C10000D0A2432303D0020286D6178207A206151
:100C20007869732052504D290D0A2431393D002036
:100C3000286175746F207370696E646C6520656ED1
:100C400061626C6520313D736572766F2C20323D98
:100C500072656C61795F682C20333D72656C6179D7
:100C60005F6C290D0A2431383D0020284175746FCE
:100C7000205A20417869732C2031203D205965731A
:100C8000290D0A2431373D0020286D6178206665E2
:100C900065642C206D6D2F6D696E290D0A24313627
:100CA0003D00202864697374616E6365202F207293
:100CB0006F746174696F6E2C206D6D290D0A24317B
:100CC000353D0020286D61696E2073746570732056
:100CD000706572207265766F6C7574696F6E290D20
:100CE0000A2431333D00202863616C6962726174AB
:100CF000696F6E20636861696E206C656E677468E9
:100D00002C206D6D290D0A2431323D002028667596
:100D10006C6C206C656E677468206F662063686118
:100D2000696E2C206D6D290D0A2431313D0020287B
:100D3000617869732069646C65206265666F7265AD
:100D4000206465746163682C206D73290D0A243159
:100D5000303D002028726F746174696F6E2072617B
:100D6000646975732C206D6D290D0A24393D0020AE
:100D7000284B696E656D6174696373205479706581
:100D800020313D5175616472696C61746572616C8A
:100D90002C20323D547269616E67756C6172290D49
:100DA0000A24383D002028736C65642063672C207A
:100DB0006D6D290D0A24373D002028736C65642071
:100DC0006865696768742C206D6D290D0A24363DAD
:100DD000002028736C65642077696474682C206D2A
:100DE0006D290D0A24353D0020286D6F746F722027
:100DF0006865696768742C206D6D290D0A24343D7F
:100E00000020286D6F746F722064697374616E6363
:100E1000652C206D6D290D0A24333D0020286D615D
:100E20006368696E65206865696768742C206D6DFC
:100E3000290D0A24323D0020286D616368696E65C2
:100E40002077696474682C206D6D290D0A24313D6A
:100E50000024303D002120286665656420686F6CA1
:100E60006429007E20286379636C65207374617245
:100E700074290024783D76616C756520287361764D
:100E800065204D61736C6F772073657474696E674C
:100E900029002424202876696577204D61736C6FC2
:100EA000772073657474696E6773290000002100F0
:100EB000240027002A002D0030003300010100002B
:100EC000040107010A0100002200250028002B0070
:100ED0002E003100340002010000050108010B0161
:100EE00000000A0B02090C0D0E08070304010000A4
:100EF00000000000000000000000000000000000F2
:100F000000000000000000000000000012111000AE
:100F100000000000000000000000000000000000D1
:100F200000000000000020697320696E76616C6922
:100F3000642E204F6E6C79204733382E3220726534
:100F4000636F676E697A65642E0047333800657297
:100F5000726F723A2070726F626520646964206EED
:100F60006F7420636F6E6E6563740A70726F677260
:100F7000616D2073746F707065640A7A206178699E
:100F800073206E6F74207365740A007A206178692B
:100F900073207A65726F656400206D6D20706572D4
:100FA000206D696E2E00666565647261746520004F
:100FB000206D6D2E006D617820646570746820006E
:100FC00070726F62696E6720666F72207A20617836
:100FD0006973207A65726F004733382E3220676359
:100FE0006F6465206F6E6C792076616C6964207720
:100FF000697468207A2D6178697320617474616303
:1010000068656400206D732E00207365636F6E64E5
:1010100073006477656C6C2074696D6520002075C1
:101020006E737570706F7274656420616E64206990
:10103000676E6F7265642E00436F6D6D616E642024
:1010400047002D2D5049442056656C6F63697479B3
:1010500020546573742053746F702D2D0A007365CE
:1010600074706F696E742C696E7075742C6F757402
:10107000707574002D2D5049442056656C6F63695E
:10108000747920546573742053746172742D2D002B
:101090002D2D50494420506F736974696F6E205430
:1010A0006573742053746F702D2D0A00736574700E
:1010B0006F696E742C696E7075742C6F75747075B1
:1010C000742C72706D696E7075742C766F6C7461AF
:1010D0006765002D2D50494420506F736974696F06
:1010E0006E20546573742053746172742D2D002D1D
:1010F0002D566F6C7461676520546573742053744A
:101100006F702D2D0A000A002C002D2D566F6C7467
:1011100061676520546573742053746172742D2D5A
:101120000046414B455F534552564F206F6666005F
:1011300046414B455F534552564F206F6E004E411E
:101140004E00204C6F776572204C696D69743A20AF
:10115000004E414E005A20417869732055707065E9
:1011600072204C696D69743A20005A204178697385
:10117000204C696D69747320436C6561726564000D
:101180004572726F722073657474696E67206C6942
:101190006D697400202020004C6F776572206C69A7
:1011A0006D69742073657420746F3A200045727203
:1011B0006F722073657474696E67206C696D6974F1
:1011C00000202020005570706572206C696D697474
:1011D0002073657420746F3A20005D005B4D65617B
:1011E000737572653A20004D6573736167653A20C7
:1011F000546865206D616368696E65206368616924
:101200006E732068617665206265656E206D616E23
:1012100075616C6C792072652D63616C69627261B5
:101220007465642E006D6D0052696768743A200021
:101230006D6D004C6566743A20006D6D00526967F3
:1012400068743A20006D6D004C6566743A20005356
:10125000657474696E6720436861696E204C656EC1
:101260006774687320546F3A200054657374732058
:10127000636F6D706C6574652E004D6F746F7220B6
:1012800043616C6962726174696F6E204E6F742085
:101290004E656564656400202E20506C6561736541
:1012A000207365742074686520636861696E7320BB
:1012B000746F2061206B6E6F776E206C656E677443
:1012C000682028416374696F6E73202D3E2053653A
:1012D0007420436861696E204C656E677468732979
:1012E000004D6573736167653A20556E61626C6588
:1012F00020746F2066696E642076616C6964206D6D
:10130000616368696E6520706F736974696F6E20C0
:10131000666F7220636861696E206C656E677468C1
:101320007320005B466F72776172642043616C6367
:10133000756C6174696E6720506F736974696F6E44
:101340005D0001021020200808102040102040807D
:101350000201020108040201010204081020408079
:101360008040201008040201800402018040201007
:101370000804020108040201010204081020408050
:1013800001020408102040800000200023002600F5
:1013900029002C002F00320000010000030106018B
:1013A00009010505050507050808080802020202EB
:1013B0000A0A0808040404040101010101010101F1
:1013C0000303030303030303040707070C0C0C0CBC
:1013D0000C0C0C0C020202020606060606060606A5
:1013E0000B0B0B0B0B0B0B0B2863056B11241FBE98
:1013F000CFEFD1E2DEBFCDBF00E00CBF13E0A0E035
:10140000B2E0EAEFFDEE00E00BBF02C007900D92E4
:10141000AC33B107D9F729E0ACE3B3E001C01D92CA
:10142000AF3FB207E1F719E0C5EFD9E000E006C031
:1014300021970109802FFE010E947874C43FD107D3
:1014400080E00807A9F70E94FB630C94EC760C94EB
:101450000000CF93DF938091750990917609C09138
:101460007709D091780930E020E0E0E8F0E0C81793
:10147000D90771F0DC01AB58B64F14964C914A3045
:1014800011F42F5F3F4F0196BF010E946574EFCFAB
:10149000C901DF91CF9108952F923F924F925F92B1
:1014A0006F927F928F929F92AF92BF92CF92DF9274
:1014B000EF92FF920F931F93CF93DF93CDB7DEB7D9
:1014C00068970FB6F894DEBF0FBECDBF988F8F8B95
:1014D0001B015E8B4D8BEBEDF4E080819181A2814D
:1014E000B38189839A83AB83BC83D8018D919D910D
:1014F0000D90BC91A02D8D839E83AF83B887D601BC
:101500008D919D910D90BC91A02D89879A87AB8775
:10151000BC87D9018D919D910D90BC91A02D8D8797
:101520009E87AF87B88BD7018D919D910D90BC910F
:10153000A02D898B9A8BAB8BBC8B84889588A688D1
:10154000B78840885188628873882D853E854F858D
:10155000588969817A818B819C810E9405709B01E9
:10156000AC01C501B4010E942F71EF89F88D208173
:101570003181428153810E9430716B017C012D8148
:101580003E814F81588569817A818B819C810E943F
:1015900005709B01AC01C301B2010E942F719B0138
:1015A000AC01C701B6010E9410726B017C01298950
:1015B0003A894B895C8969817A818B819C810E94FF
:1015C00005709B01AC01C501B4010E942F71D101CE
:1015D0002D913D914D915C910E9430714B015C01C8
:1015E00029853A854B855C8569817A818B819C81CF
:1015F0000E940570A30192010E9430719B01AC0111
:101600006091A9037091AA038091AB039091AC0300
:101610000E942F719B01AC01C501B4010E941072A0
:101620004B015C01A70196016D817E818F819885B8
:101630000E9405702B013C01A501940169857A8502
:101640008B859C850E9405709B01AC01C301B20192
:101650000E942F712B013C012D853E854F855889B5
:1016600069897A898B899C890E942F719B01AC01C1
:10167000C301B2010E9430712B013C01A50194010C
:10168000C701B6010E9430719B01AC0169817A816A
:101690008B819C810E9410729B01AC01C301B2013D
:1016A0000E9405706B017C01ED89FE8920813181EA
:1016B000428153816091B9037091BA038091BB0359
:1016C0009091BC030E9405709B01AC01C701B6015B
:1016D0000E94307168960FB6F894DEBF0FBECDBF82
:1016E000DF91CF911F910F91FF90EF90DF90CF90FE
:1016F000BF90AF909F908F907F906F905F904F9032
:101700003F902F9008958F929F92AF92BF92FF9239
:101710000F931F93CF93DF93F09066092FE22F155D
:1017200008F44CC02091680908E512E0021B110979
:1017300027FD1395000F111F000F111F209167093E
:10174000C8E8D0E0C21BD10927FDD395CC0FDD1F1F
:10175000CC0FDD1F4E010D2E000CAA08BB0898010E
:10176000012E000C440B550B281939094A095B0955
:10177000DC010E94F87024EB30E040E050E00E9471
:10178000D270820E931EA41EB51E8C169D062CF0E0
:10179000E801801691060CF4E4012297CC0FDD1FBE
:1017A0002FB7F8948F2D90E0FC01EE0FFF1FE80F8C
:1017B000F91FEB52F74FD283C1832FBFDF91CF9137
:1017C0001F910F91FF90BF90AF909F908F900895C1
:1017D0008150823108F05AC0E82FF0E08827EC50A1
:1017E000F44F8F4F0C947874140C180C060C0C0CDE
:1017F000100C460C1B0C210C250C2B0C2F0C330C45
:10180000390C3D0C460C410C470C4B0C8091800070
:101810008F77809380000895809180008F7DF9CF2D
:1018200080918000877FF5CF84B58F7784BD089540
:1018300084B58F7DFBCF8091B0008F778093B0000F
:1018400008958091B0008F7DF9CF809190008F77BF
:10185000809390000895809190008F7DF9CF8091C2
:101860009000877FF5CF8091A0008F778093A000B4
:1018700008958091A0008F7DF9CF8091A000877F8F
:10188000F5CF809120018F7780932001089580917A
:1018900020018F7DF9CF80912001877FF5CFCF93F5
:1018A000DF93282F30E0F901E052F14F8491F901E4
:1018B000EE5BFC4ED491F901EE55FC4EC491CC2365
:1018C00099F0811185DFEC2FF0E0EE0FFF1FE85754
:1018D000FC4EA591B491EC91ED2381E090E009F4E8
:1018E00080E0DF91CF91089580E090E0FACF1F93E0
:1018F000CF93DF93282F30E0F901E052F14F84912C
:10190000F901EE5BFC4ED491F901EE55FC4EC49109
:10191000CC23A1F0162F81115BDFEC2FF0E0EE0F4E
:10192000FF1FEA53F14FA591B4918FB7F894EC9152
:10193000111108C0D095DE23DC938FBFDF91CF91CA
:101940001F910895DE2BF8CFCF93DF9390E0FC0139
:10195000EE5BFC4E24918E559C4EFC0184918823B5
:10196000C9F090E0880F991FFC01E455F14FA59153
:10197000B491FC01EA53F14FC591D49161110DC0AE
:101980009FB7F8948C91209582238C93888128238B
:1019900028839FBFDF91CF910895623051F49FB7A4
:1019A000F8943C91822F809583238C93E8812E2B91
:1019B000EFCF8FB7F894EC912E2B2C938FBFEACFFB
:1019C0001F93CF93DF93182FEB0161E0BDDF2097CA
:1019D00031F460E0812FDF91CF911F9188CFCF3F0D
:1019E000D10511F461E0F6CFE12FF0E0E052F14FC4
:1019F000E491E150E23108F0B3C0F0E08827EC5FF9
:101A0000F24F8F4F0C947874160D1E0D230D2D0D73
:101A1000370DB00D410D490D510D5B0D650D6F0D6D
:101A20007E0D880DB00D920D9C0DA60D84B58068BD
:101A300084BDC7BDDF91CF911F91089584B58062A9
:101A400084BDC8BDF7CF80918000806880938000FE
:101A5000D0938900C0938800EDCF80918000806290
:101A600080938000D0938B00C0938A00E3CF809155
:101A70008000886080938000D0938D00C0938C009C
:101A8000D9CF8091B00080688093B000C093B3003C
:101A9000D1CF8091B00080628093B000C093B40039
:101AA000C9CF80919000806880939000D093990076
:101AB000C0939800BFCF8091900080628093900087
:101AC000D0939B00C0939A00B5CF8091900088601E
:101AD00080939000D0939D00C0939C00ABCF8091E9
:101AE000A00080688093A0008091A0008F7B8093ED
:101AF000A000D093A900C093A8009CCF8091A00023
:101B000080628093A000D093AB00C093AA0092CFD4
:101B10008091A00088608093A000D093AD00C09316
:101B2000AC0088CF80912001806880932001D09301
:101B30002901C09328017ECF80912001806280938B
:101B40002001D0932B01C0932A0174CF80912001F2
:101B5000886080932001D0932D01C0932C016ACF1F
:101B6000C038D1050CF03ECF34CF3FB7F894809108
:101B70006C0390916D03A0916E03B0916F0326B535
:101B8000A89B05C02F3F19F00196A11DB11D3FBFB5
:101B9000BA2FA92F982F8827BC01CD01620F711D84
:101BA000811D911D42E0660F771F881F991F4A957E
:101BB000D1F708952FB7F894609168037091690385
:101BC00080916A0390916B032FBF0895FC012481DB
:101BD00035816217730748F480819181009729F05D
:101BE000860F971FFC018081089580E008952F9251
:101BF0003F924F925F926F927F928F929F92AF929D
:101C0000BF92CF92DF92EF92FF920F931F93CF93E9
:101C1000DF9300D01F92CDB7DEB79C838B831B016F
:101C2000EB81FC811081E12EF12CB7018FE699E068
:101C3000CDDF2091730930917409803241F4E216AE
:101C4000F30628F41F5FEB81FC811083E9CF812C20
:101C5000412C512C80E8682E8FE3782EC12CD12C9A
:101C60007601912C1982EB81FC81F081FA830F2F90
:101C700010E0A0907309B0907409B8018FE699E064
:101C8000A5DFE82F0A151B0580F58D3209F475C014
:101C90008E3209F475C080ED8E0F8A3008F583947A
:101CA000AAE0B0E0A70196010E94EE70CE2EEE0FE2
:101CB000DD08EE08FF08C60ED71EE81EF91E80E3F9
:101CC000C81AD108E108F108992051F02DEC3CEC3C
:101CD0004CEC5DE3C301B2010E9405702B013C0195
:101CE0008A818F5FEB81FC818083EB81FC810081A5
:101CF00010E0B8018FE699E069DF80330CF443C04F
:101D00008A330CF445C060E070E0CB018820F1F02C
:101D1000F981FF2341F0F094E094D094C094C11C69
:101D2000D11CE11CF11CC701B6010E94A66F9920CD
:101D300021F0A30192010E940570F101608371837B
:101D40008283938360E070E080E89FE30F900F90C0
:101D50000F900F90DF91CF911F910F91FF90EF9017
:101D6000DF90CF90BF90AF909F908F907F906F90BB
:101D70005F904F903F902F900895E1E0E983B0CFBE
:101D800099249394ADCF8E3209F0BDCF9110BBCF83
:101D900080917309909174090817190708F463CFAB
:101DA000B2CFFC01248135816217730720F4808152
:101DB0009181009729F41092640384E693E00895DA
:101DC000860F971F089508950895AF92BF92CF92FE
:101DD000DF92EF92FF920F931F93CF93DF936C01EB
:101DE0007B018B01040F151FEB015E01AE18BF08CC
:101DF000C017D10759F06991D601ED91FC9101907E
:101E0000F081E02DC6011995892B79F7C501DF9185
:101E1000CF911F910F91FF90EF90DF90CF90BF90E7
:101E2000AF900895FC0144815581608171818EE3FA
:101E300094E0CBCFFC01538D448D252F30E0842FCF
:101E400090E0821B930B541710F0CF9608950197E2
:101E50000895FC01918D828D981761F0A28DAE0FCF
:101E6000BF2FB11D5D968C91928D9F5F9F73928F56
:101E700090E008958FEF9FEF0895FC01918D828D82
:101E8000981731F0828DE80FF11D858D90E008954F
:101E90008FEF9FEF0895FC01918D228D892F90E0A7
:101EA000805C9F4F821B91098F73992708958EE361
:101EB00094E0F1DF21E0892B09F420E0822F0895DE
:101EC000FC01A48DA80FB92FB11DA35ABF4F2C91AF
:101ED000848D90E001968F739927848FA689B789A6
:101EE0002C93A089B1898C91837080648C93938D9D
:101EF000848D981306C00288F389E02D80818F7D40
:101F000080830895EF92FF920F931F93CF93DF93F7
:101F1000EC0181E0888F9B8D8C8D98131AC0E88925
:101F2000F989808185FF15C09FB7F894EE89FF89F4
:101F30006083E889F98980818370806480839FBF92
:101F400081E090E0DF91CF911F910F91FF90EF9092
:101F50000895F62E0B8D10E00F5F1F4F0F731127A2
:101F6000E02E8C8D8E110BC00FB607FCFACFE889DE
:101F7000F989808185FFF5CFCE01A2DFF2CFEB8D0D
:101F8000EC0FFD2FF11DE35AFF4FF0829FB7F8943D
:101F90000B8FEA89FB8980818062D0CF0F931F93DA
:101FA000CF93DF938C01D0E0C0E0F801EC0FFD1F70
:101FB0006491662339F08EE394E0A4DF892B11F05D
:101FC0002196F3CFCE01DF91CF911F910F9108950C
:101FD000682F8EE394E096CFCF93DF93EC01888D4A
:101FE0008823B1F0AA89BB89E889F9898C9185FD9C
:101FF00003C0808186FD0CC00FB607FCF7CF8C9123
:1020000085FFF2CF808185FFEDCFCE0159DFEACF8A
:10201000DF91CF91089580E090E0892B21F047DF98
:1020200081110E94000080E090E0892B49F080E05F
:1020300090E0892B29F00E94000081110E9400008D
:1020400080E090E0892B49F080E090E0892B29F036
:102050000E94000081110E94000080E090E0892B26
:1020600049F080E090E0892B29F00E940000811166
:102070000C9400000895AF92BF92CF92DF92EF923E
:10208000FF920F931F93CF93DF936B017A01EC01C3
:10209000C05ADC4F28813CE0389F8001399F100DE9
:1020A0001124A0906509B12C27FF1FC0FB011182EC
:1020B000108288818F5F888388819801280F311D65
:1020C00087FD3A95F6012A153B051CF488818C3072
:1020D000BCF180819181049680349C4908F471C0E0
:1020E000F6018081918104966EC088819801280F45
:1020F000311D87FD3A952A153B05DCF68881A8013C
:10210000480F511D87FD5A95FA01EE0FFF1FE40F8E
:10211000F51FEB52F74F808186FFCBCF8881F80106
:10212000E80FF11D87FDFA95CF01EE0FFF1FE80FB5
:10213000F91FEB52F74F808160E08F73D8DBB9CF86
:10214000808191812881A801420F511D27FD5A9558
:102150009A01FA01EE0FFF1FE20FF31FEB52F74F48
:1021600021813281820F931FF701918380838881BF
:102170009801280F311D87FD3A95F901EE0FFF1FD9
:10218000E20FF31FEB52F74F808186FF21C0888159
:10219000080F111D87FD1A95F801EE0FFF1FE00FC4
:1021A000F11FEB52F74F808161E08F73DF91CF9188
:1021B0001F910F91FF90EF90DF90CF90BF90AF9065
:1021C00096CB80E49CE9F701918380838FEF88832D
:1021D000DF91CF911F910F91FF90EF90DF90CF9003
:1021E000BF90AF900895009709F440C097FF03C0D7
:1021F0009195819591098430910514F083E090E0E8
:1022000020913D04211135C020913C04222351F03E
:102210008430910514F083E090E08230910514F44D
:1022200082E090E02091B100287F2093B1002091BE
:102230009100287F209391002091A100287F209376
:10224000A100282F83309105BCF09091B1008F5FE1
:10225000892B8093B10090919100922B90939100E3
:102260008091A100822B8093A100089581E090E0ED
:10227000C7CF83E090E0D6CF9091B100E9CFAF9285
:10228000BF92CF92DF92EF92FF920F931F93CF9363
:10229000DF9362E086E158DB62E087E155DB62E0D4
:1022A00088E152DB62E089E14FDB62E08AE14CDBEE
:1022B00062E08BE149DB8BE1F2DAEC018AE1EFDAF3
:1022C0005C0189E1ECDA6C0188E1E9DA7C0187E103
:1022D000E6DA8C0186E1E3DA9E01220F331F2A0D34
:1022E0003B1D220F331F2C0D3D1D220F331F2E0DC2
:1022F0003F1D220F331F200F311F220F331F820F6C
:10230000931F84339105C9F054F484309105A9F0EA
:1023100086309105D1F0863091056CF01BC09C0190
:102320002D53310923303105B0F78370992710926E
:102330003D0410923C0401970DC08770992721E05D
:1023400020933D0410923C04E6CF10923D0421E01E
:1023500020933C04DF91CF911F910F91FF90EF905C
:10236000DF90CF90BF90AF9008958EE394E071CD51
:102370008EE394E090CDCF93DF938EE394E0C2DDC3
:10238000EC018EE394E028DECE01DF91CF91089539
:1023900090E080E008954F925F926F927F928F92CB
:1023A0009F92AF92BF92CF92DF92EF92FF92CF9324
:1023B000DF93CDB7DEB72E970FB6F894DEBF0FBE12
:1023C000CDBF9E878D87DC019096ED91FC91808139
:1023D0009181A281B38189839A83AB83BC83AD85CC
:1023E000BE859496ED91FC9160817181828193818B
:1023F00029813A814B815C810E942F714B015C01E4
:10240000ED85FE8526A537A540A951A969817A8168
:102410008B819C810E942F716B017C01AD85BE85F3
:1024200054962D913D914D915C915797C501B40102
:102430000E940570ED85FE8522A533A544A555A50E
:102440000E9430712B013C01AD85BE859A964D925C
:102450005D926D927C929D9711968C911197882335
:10246000B1F016962D913D914D915C911997C70150
:10247000B6010E9405709B01AC01C301B2010E942C
:102480002F71ED85FE8562A773A784A795A7AD85FB
:10249000BE859A968D919D910D90BC91A02D8D83B6
:1024A0009E83AF83B887ED85FE8542AC53AC64ACA8
:1024B00075ACA3019201BC01CD010E943373AD85BF
:1024C000BE8518160CF075C09A964D925D926D926D
:1024D0007C929D97AD85BE858C91882309F488C038
:1024E00012962D913D914D915C911597C501B401C6
:1024F0000E9405704B015C01ED85FE85208D318DBC
:10250000428D538DC701B6010E9405709B01AC013D
:10251000AD85BE859A966D917D918D919C919D978B
:102520000E942F71A50194010E9430716B017C0102
:102530009B01AC01C301B2010E94A06F87FD10C0D6
:10254000ED85FE8546A857A860AC71ACA301920149
:10255000B601C7010E94A06F87FD02C026013701A6
:10256000AD85BE859296ED91FC914082518262824A
:10257000738289819A81AB81BC81ED85FE8586A7B6
:1025800097A7A0ABB1AB81E02E960FB6F894DEBF53
:102590000FBECDBFDF91CF91FF90EF90DF90CF9036
:1025A000BF90AF909F908F907F906F905F904F9073
:1025B0000895D6968D919D910D90BC91A02D8987FF
:1025C0009A87AB87BC879C01AD016D817E818F812D
:1025D00098850E94A06F87FF7DCF89859A85AB85FE
:1025E000BC85ED85FE8582A793A7A4A7B5A772CF6A
:1025F000812C912C540180CF8F929F92AF92BF92E9
:10260000CF92DF92EF92FF92CF93DF93EC01EAA19A
:10261000FBA1C080D180E280F380CAA6DBA6ECA635
:10262000FDA6E8A1F9A180819181A281B3818EA745
:102630009FA7A8ABB9AB8AAC9BACACACBDACA501B9
:102640009401C701B6010E94337318162CF48AA6B0
:102650009BA6ACA6BDA60CC08EA89FA8A8ACB9AC82
:10266000A5019401C701B6010E94A06F87FDEFCFBD
:10267000DF91CF91FF90EF90DF90CF90BF90AF9020
:102680009F908F9008958F929F92AF92BF92CF921A
:10269000DF92EF92FF920F931F93CF93DF93EC01A2
:1026A0008A01FB01C080D180E280F380FA012081A1
:1026B000318142815381C701B6010E94337387FF84
:1026C0005CC0CEAADFAAE8AEF9AEF80160817181E4
:1026D000828193816AAF7BAF8CAF9DAF2EAD2223F9
:1026E00009F44BC00AA11BA1F8012081318142816C
:1026F00053810E94A06F87FF1EC08AAD9BADACAD19
:10270000BDADF80180839183A283B3838AA49BA487
:10271000ACA4BDA4CAACDBACECACFDACA70196018B
:10272000C501B4010E9433731816DCF4CAA6DBA6F7
:10273000ECA6FDA622C0F80120813181428153819F
:10274000C701B6010E94337318162CF48EA99FA9F5
:10275000A8ADB9ADD6CFF80180819181A281B381B6
:10276000D0CFCEA8DFA8E8ACF9ACA7019601C5018F
:10277000B4010E94A06F87FDD9CFDF91CF911F9147
:102780000F91FF90EF90DF90CF90BF90AF909F9010
:102790008F9008952F923F924F925F926F927F9207
:1027A0008F929F92AF92BF92CF92DF92EF92FF9261
:1027B0000F931F93CF93DF93CDB7DEB72C970FB650
:1027C000F894DEBF0FBECDBF9C878B877A83698369
:1027D0005A8749871901DB018D919D910D90BC911C
:1027E000A02D8D839E83AF83B88720E030E0A901C0
:1027F000BC01CD010E94A06F87FDEFC0E985FA857D
:10280000C080D180E280F38020E030E0A901C701E0
:10281000B6010E94A06F87FDE0C0D1018D909D9010
:10282000AD90BC9020E030E0A901C501B4010E9448
:10283000A06F87FDD2C0F801408051806280738014
:1028400020E030E0A901C301B2010E94A06F87FD22
:10285000C4C020E030E040E85FE3C301B2010E9461
:10286000337318160CF4B9C011E020E030E0A90170
:10287000C301B2010E94337318160CF010E0AB854F
:10288000BC851C9320E030E040E85FE3C301B20167
:102890000E94A06F881F8827881FEB85FC85818395
:1028A00089819A8193878287A985BA85B587A4870C
:1028B0003786268662A973A984A995A90E94A46F68
:1028C00020E030E04AE754E40E94107269837A8382
:1028D0008B839C838D819E81AF81B885EB85FC8540
:1028E000808B918BA28BB38B29813A814B815C8148
:1028F000C701B6010E9405706B017C01AB85BC85E8
:102900005496CD92DD92ED92FC92579729813A81AF
:102910004B815C81C501B4010E9410724B015C01C6
:10292000EB85FC85808E918EA28EB38E848D958DE5
:10293000019769F52D813E814F81588560E070E0F7
:10294000CB010E942F71AB85BC8550966D937D9312
:102950008D939C935397A701960160E070E0CB01A3
:102960000E942F71EB85FC85648B758B868B978B12
:10297000A501940160E070E0CB010E942F71AB854E
:10298000BC8558966D937D938D939C935B97EB8557
:10299000FC85C088D188E288F388A7019601C3012D
:1029A000B2010E940570AB85BC8512966D937D9334
:1029B0008D939C931597A301920160E070E080E8ED
:1029C0009FE30E942F71A70196010E940570EB857D
:1029D000FC8566837783808791872C960FB6F89461
:1029E000DEBF0FBECDBFDF91CF911F910F91FF9042
:1029F000EF90DF90CF90BF90AF909F908F907F909F
:102A00006F905F904F903F902F9008956F927F92BC
:102A10008F929F92AF92BF92CF92DF92EF92FF92EE
:102A20000F931F93CF93DF93CDB7DEB73C01C8015F
:102A30008501F30153A342A371A360A335A324A38B
:102A400016AE16AA17AA10AE11AE40E050E06FE71E
:102A500073E442AF53AF64AF75AF44E650E060E05B
:102A600070E042AB53AB64AB75ABF40120813181B4
:102A7000F301358F248F9601A701BC01C3018ADEC3
:102A800099D8F30102A913A924A935A9601B710BD8
:102A9000820B930B66A377A380A791A7DF91CF91B9
:102AA0001F910F91FF90EF90DF90CF90BF90AF906C
:102AB0009F908F907F906F900895823109F468C045
:102AC00030F48230E1F0833069F180E008958431A0
:102AD000D9F108F44BC08531C1F77093410360937D
:102AE000400389E39BE19093050280930402809167
:102AF00069008C7F816080936900E89A11C07093AF
:102B00003D0360933C0383E49BE190930102809337
:102B1000000280916A008C7F816080936A00EC9A49
:102B200081E0089570933F0360933E038EE39BE141
:102B3000909303028093020280916A00837F8460F5
:102B400080936A00ED9AECCF709343036093420345
:102B500084E39BE1909307028093060280916900D1
:102B6000837F846080936900E99ADACF709345038C
:102B7000609344038FE29BE19093090280930802E3
:102B8000809169008F7C806180936900EA9AC8CF48
:102B900070934703609346038AE29BE190930B0294
:102BA00080930A02809169008F738064809369002A
:102BB000EB9AB6CFEF92FF920F931F93CF93DF93D1
:102BC000EC019B018E81811103C0442309F4DCC018
:102BD00080917303909174038A9709F4D5C0890199
:102BE0002F3F310519F014F00FEF10E001304FEFD7
:102BF000140714F401E01FEF18AF0FAB17FF03C069
:102C00001195019511098A819B818430910539F0D4
:102C100051E0BC016B5071096330710508F450E05C
:102C2000EC80FD8044E0E416F10429F071E0F70146
:102C30003B97339708F470E040913D0441115DC02B
:102C4000E881F981E430F10531F041E0DF011B97C3
:102C5000139708F440E060913C04611178C01216AB
:102C600013068CF5442389F061E00E94770C60E044
:102C70008C810E94770CB8018881DF91CF911F91E0
:102C80000F91FF90EF900C94E00C7723A1F061E09E
:102C90000E94770C6FEF70E0601B710B8C810E94BB
:102CA000E00C61E08881DF91CF911F910F91FF903F
:102CB000EF900C94770CB8010E94E00C60E08C81DE
:102CC0000E94770CEECF442339F061E08E2D0E94F4
:102CD000770C60E08A81CDCF552341F06FEF70E033
:102CE000601B710B0E94E00C61E0E9CFB8018E2DF2
:102CF0000E94E00C60E08A81E3CF0F3F110514F0E1
:102D00000EEF10E0121613068CF4772349F061E001
:102D10000E94770C6FEF70E0601B710B8C81ADCF60
:102D2000B8010E94E00C60E08C81BDCF552341F0DA
:102D30006FEF70E0601B710B0E94E00C61E0F4CF5C
:102D4000B8018E2D0E94E00C60E08A81ACCF4091EA
:102D50004B0350914C0361E0E417F50729F4121678
:102D600013064CF460E007C0409125044130B9F7E8
:102D700012161306BCF70E94770CB80188810E94D6
:102D8000E00C60E08E2D8FCFDF91CF911F910F91DE
:102D9000FF90EF9008952F923F924F925F926F9223
:102DA0007F928F929F92AF92BF92CF92DF92EF92DB
:102DB000FF920F931F93CF93DF93CDB7DEB7A0970A
:102DC0000FB6F894DEBF0FBECDBF3C012B014A0108
:102DD0003A8F298FD8A2CF8E15011D8A1E8A1F8A8D
:102DE000188E80E090E0A0E8BFE3898B9A8BAB8BD4
:102DF000BC8B930128533F4F3C8F2B8FCE014596C0
:102E0000F90191838083225031093E8F2D8FF90182
:102E100091838083329791838083F701E080F180F2
:102E2000F8010081118162E0802F0E94A40C62E011
:102E30008E2D0E94A40CA8015527FA01EE55FC4ED8
:102E4000E491F0E0EE0FFF1FE857FC4E259134911E
:102E5000F301318320834E5B5C4EFA014491F30110
:102E60004483C7019927FC01EE55FC4EE491F0E044
:102E7000EE0FFF1FE857FC4EA591B491F301B38309
:102E8000A2838E5B9C4EFC018491F30185831782A3
:102E9000108611861286EBE3FFE13197F1F7F90115
:102EA0009081492391E009F490E0EC91E82309F046
:102EB0009260F3019683B301802FFFDDF301838BD2
:102EC000B3018E2DFADDF3019389890F838B1D8663
:102ED0001E861F86188A80E090E0A0E8BFE38987FD
:102EE0009A87AB87BC87830102551F4FCE010D9691
:102EF000F801918380833297918380833297918305
:102F000080837301F4E1EF0EF11CF2018081918165
:102F1000F301848B958BF40120813181F301378B90
:102F2000268BE98DFA8D20813181F301318F208F3D
:102F3000128E90913D04992309F45AC160E00E94D9
:102F4000A40C61E0F30186890E94A40C61E0F30106
:102F5000808D0E94A40C60E0F30186890E94770CAA
:102F600060E0F301808D0E94770C40E070E060E04B
:102F7000C70120DE2301FBE64F0E511C1A82198285
:102F8000F801C080D180F301E455FF4FE080F1806B
:102F90003297008111819E012F5F3F4F4901CE0181
:102FA00009965C019301235B3F4FA30149595F4F91
:102FB000B3016F5A7F4FC20129DDF20186AD811145
:102FC00002C0C20119DB81E0F20186AF80E090E02F
:102FD000AFE7B3E489839A83AB83BC8380E090E05E
:102FE000AFE7B3EC8D839E83AF83B887AE014F5FAD
:102FF0005F4FBE016B5F7F4FC20145DBF101608116
:1030000071818281938128EE33E040E050E00E949C
:10301000FE7012161306C4F56901330FEE08FF089F
:10302000C701B6010E94A66F4B015C01F20162A9C3
:1030300073A984A995A90E94A46F9B01AC01C50145
:10304000B4010E9410724B015C01AC019B01F201C2
:1030500064897589868997890E940570F201648B5D
:10306000758B868B978BA5019401608D718D828DF8
:10307000938D0E941072F201608F718F828F938FF7
:10308000C2AAD3AAE4AAF5AA2301FAEC4F0E511C56
:1030900081E090E09A838983EB8DFC8DC080D180A4
:1030A000ED8DFE8DE080F180F301EC53FF4F008148
:1030B00011819E012F5F3F4F4901CE0141965C0176
:1030C000930128543F4FA30140545F4FB301645410
:1030D0007F4FC2019BDCEF8DF8A180818301025FED
:1030E0001E4FF8018083F20186AD811102C0C2013A
:1030F00083DA81E0F20186AF80E090E0A0EAB1E4FB
:1031000089839A83AB83BC8380E090E0A0EAB1EC32
:103110008D839E83AF83B887AE014F5F5F4FBE0143
:103120006B5F7F4FC201AFDAF101608171818281F3
:10313000938128EE33E040E050E00E94FE701216CA
:103140001306C4F56901330FEE08FF08C701B60185
:103150000E94A66F4B015C01F20162A973A984A9C8
:1031600095A90E94A46F9B01AC01C501B4010E9406
:1031700010724B015C01AC019B01F20164897589FD
:10318000868997890E940570F201648B758B868B06
:10319000978BA5019401608D718D828D938D0E9416
:1031A0001072F201608F718F828F938FC2AAD3AA9F
:1031B000E4AAF5AAF301EB59FF4F11830083A0960F
:1031C0000FB6F894DEBF0FBECDBFDF91CF911F9138
:1031D0000F91FF90EF90DF90CF90BF90AF909F90B6
:1031E0008F907F906F905F904F903F902F900895B9
:1031F00090913C0461E0992371F00E94A40C61E07D
:10320000F30186890E94A40C61E0F301808D0E9485
:10321000A40C61E0A6CE0E94A40C61E0F3018689B3
:103220000E94A40C61E0F301808D0E94A40C61E077
:10323000F30186890E94770C60E0F301808D0E9483
:10324000770C60E0F30184898ECE41E0B3CCCF935C
:10325000DF93EC018E818823D1F080913D04882397
:1032600049F060E08A810E94770C60E08C810E94C6
:10327000770C0DC080913C0461E0882361F08C8163
:103280000E94770C70E060E088810E94E00C1E8252
:10329000DF91CF9108958A810E94770C60E08C8144
:1032A0000E94770C60E08881E2CF2F923F924F928C
:1032B0005F926F927F928F929F92AF92BF92CF92C6
:1032C000DF92EF92FF920F931F93CF93DF93EC0166
:1032D0001B010E94DA0DFE01EC54FF4F60837183E5
:1032E00082839383E65AFF4F80818E01075F1E4FD2
:1032F000C854DF4F8A3509F059C0C0903304D090CC
:103300003404E0903504F0903604D1014D905D9086
:103310006D907C90D801ED91FC9180809180A2808D
:10332000B380A7019601C701B6010E9440748111C4
:1033300025C0A3019201C701B6010E94A06F87FFBB
:103340001DC0A5019401C701B6010E9410726883D7
:1033500079838A839B83DF91CF911F910F91FF9097
:10336000EF90DF90CF90BF90AF909F908F907F9025
:103370006F905F904F903F902F900895C0903704CA
:10338000D0903804E0903904F0903A04A7019601F7
:10339000C701B6010E944074811108C0A3019201C7
:1033A000C701B6010E94337318165CF2D801ED9183
:1033B000FC912081318142815381F10160817181D1
:1033C00082819381C2CF0F931F93CF93DF93EC0140
:1033D0000E94DA0DFE01EC54FF4F00811181228121
:1033E0003381AB01BC01401B510B620B730B80910D
:1033F000C2039091C303B0E0A0E084179507A6072D
:10340000B70738F4CE014496DF91CF911F910F9109
:103410001ECFDF91CF911F910F9108956F927F92F0
:103420008F929F92AF92BF92CF92DF92EF92FF92D4
:103430000F931F93CF93DF93CDB7DEB73C01FC0111
:10344000EC53FF4F718360833296518340833296F1
:103450003183208386539F4F9DD9F301E655FF4F5B
:10346000F182E0823296D182C0823296B182A0820D
:1034700084019501A601B701C30185599F4F8AD9DF
:10348000DF91CF911F910F91FF90EF90DF90CF9040
:10349000BF90AF909F908F907F906F900895CF9244
:1034A000DF92EF92FF92CF93DF93EC01FB01C0809C
:1034B000D180E280F380C701B6010E94A66FFE01B1
:1034C000E55FFE4F0190F081E02D20813181428146
:1034D00053810E941072FE01E854FF4F6083718394
:1034E00082839383F894CF82D886E986FA8678948B
:1034F000DF91CF91FF90EF90DF90CF900895CF9222
:10350000DF92EF92FF92CF93DF93EC01E881F98194
:103510009081EA81FB8180812D818223EE81E3709D
:103520002C81922309F0E4608111E8608E2F90E0F5
:1035300095958795959587958E83E150EE3008F0A7
:1035400034C0F0E08827E855F54E8F4F0C9478741E
:10355000B61ADC1AF61ADC1AD51A101BB61AB61AE5
:10356000101BD51ADC1AF61ADC1AB61A8F81988548
:10357000A985BA850196A11DB11D8F839887A9875A
:10358000BA870E94B50DCF84D888E988FA886C196B
:103590007D098E099F096B877C878D879E870E9496
:1035A000B50D6F87788B898B9A8BDF91CF91FF90C8
:1035B000EF90DF90CF9008958F819885A985BA8587
:1035C0000197A109B1098F839887A987BA87CF840A
:1035D000D888E988FA880E94B50DC61AD70AE80A81
:1035E000F90ACB86DC86ED86FE86D9CF8F81988559
:1035F000A985BA850296A11DB11D8F839887A987D9
:10360000BA870E94B50DCF84D888E988FA886C19EA
:103610007D098E099F099695879577956795BBCF0C
:103620008F819885A985BA850297A109B1098F83F1
:103630009887A987BA87CF84D888E988FA880E94B2
:10364000B50DC61AD70AE80AF90AF694E794D79492
:10365000C794C7CF809146039091470350CF809184
:103660004403909145034BCF8091420390914303D3
:1036700046CF809140039091410341CF80913E031A
:1036800090913F033CCF80913C0390913D0337CF15
:10369000CF93DF93EC018B89823058F4F894CE01FC
:1036A0002EDF6F81788589859A857894DF91CF9117
:1036B0000895F894F6CF2F923F924F925F926F92B7
:1036C0007F928F929F92AF92BF92CF92DF92EF92B2
:1036D000FF920F931F93CF93DF9300D000D01F92E0
:1036E0001F92CDB7DEB798878F83D2DF0E94A66F77
:1036F00069837A838B839C830E94B50D0E94A46F9B
:103700002B013C012F80388425E5220E311CF1016C
:10371000208131814281538169817A818B819C81B1
:103720000E942F716B017C0120E030E040E450E406
:103730000E9433732F813885275A3F4F3E832D8354
:10374000181654F020E030E040E450ECB601C70118
:103750000E94A06F87FF9EC00F811885035A1F4FDC
:10376000F8012081318142815381B601C7010E9455
:103770002F714B015C0120E030E040E85FEB0E94DC
:10378000A06F18160CF470C020E030E040E05FE35A
:10379000B601C7010E94307146015701F8018082CD
:1037A0009182A282B382ED81FE8180809180A2808D
:1037B000B3800F8118850F591F4FAF81B885A05571
:1037C000BF4F2D913D914D915C910E9405706B0111
:1037D0007C01A5019401C301B2010E942F710E94D6
:1037E0007D720E94A46F9B01AC01C701B6010E94CB
:1037F0001072F80160837183828393832F813885EF
:103800002F593F4FF90160817181828193819058D6
:103810006083718382839383ED81FE814082518234
:103820006282738229813A814B815C81F10120831C
:1038300031834283538328960FB6F894DEBF0FBEC0
:10384000CDBFDF91CF911F910F91FF90EF90DF904F
:10385000CF90BF90AF909F908F907F906F905F9030
:103860004F903F902F90089520E030E040E85FE3D4
:10387000C501B4010E94337387FD09C020E030E028
:1038800040E05FE3B601C7010E942F7185CFB6010A
:10389000C70182CFEF81F8858389823008F06FC03D
:1038A000F8948F8198852BDEEF81F8856385748588
:1038B0008585968578940E94A66F6B017C010E9495
:1038C000B50D4B015C01EF81F8858389823008F0EA
:1038D00058C0F8948F81988512DEEF81F88587852E
:1038E0009089A189B2897894A5019401281B390B8C
:1038F0004A0B5B0BCA01B9010E94A46F4B015C012A
:1039000020E030E0A901C701B6010E9433730F81A6
:1039100018850F591F4F1816B4F1A701960150587A
:10392000C501B4010E94337318167CF420E030E026
:10393000A901C701B6010E94A06F7501640187FF4C
:1039400004C0F7FAF094F7F8F094F80110821182AD
:103950001282138220E030E0A901C701B6010E9463
:10396000A06F882309F44ACFA7019601EF81F8855B
:10397000E055FF4F608171818281938138CFF89447
:1039800093CFF894AACFA5019401C701B6010E9474
:10399000A06F87FDCBCFE8CFCF92DF92EF92FF925F
:1039A000CF93DF93EC0174DEFE01E854FF4FC0803B
:1039B000D180E280F3800E94A66FFE01E55FFE4F9A
:1039C0000190F081E02D20813181428153810E945C
:1039D0001072A70196010E942F71C75FDE4FE88128
:1039E000F98120813181428153810E940570DF91EC
:1039F000CF91FF90EF90DF90CF900895CF93DF931A
:103A0000EC0146DE0E94A66FFE01E55FFE4F0190CD
:103A1000F081E02D20813181428153810E9410721A
:103A2000C75FDE4FE881F981208131814281538176
:103A30000E940570DF91CF910895CF93DF93EC0141
:103A40000E94DA0DFE01EC54FF4F60837183828384
:103A50009383CE01D3DFFE01E75FFE4F0190F0813B
:103A6000E02D20813181428153810E941072C8541F
:103A7000DF4F688379838A839B83DF91CF91089599
:103A8000FC0101900020E9F73197AF01481B590B69
:103A9000BC018EE394E00C94E50E8CE592E0F0CF4F
:103AA000CF93DF930E94CE0FEC01F7DF8C0F9D1FA9
:103AB000DF91CF9108952F923F924F925F926F9234
:103AC0007F928F929F92AF92BF92CF92DF92EF92AE
:103AD000FF920F931F93CF93DF93CDB7DEB7AE97CF
:103AE0000FB6F894DEBF0FBECDBF0E943F111C0180
:103AF000892B09F090C082E190E09E838D8383E161
:103B000090E098878F8389E090E09A8B898B88E09A
:103B100090E09C8B8B8B86E090E09E8F8D8F82E077
:103B200090E09A87898783E090E09C878B878BE081
:103B300090E09E8B8D8B8AE090E0988F8F8B87E052
:103B400090E098A38F8F85E190E09E878D8784E138
:103B500090E0988B8F878CE090E09A8F898F8DE032
:103B600090E09C8F8B8F85E090E09AA389A38FEFE4
:103B70009FEF98A78FA39EA38DA344244A94542C0F
:103B800091E09EA78EE090E09CA78BA79FE09DA769
:103B900080E18CA381E190E09AA789A780913C0401
:103BA00090912504E0E16E2EE7E27E2E812C912C8F
:103BB00069827A828B829C82913009F074C1811172
:103BC0005FC18CE48BA3CE0101965C0182966C01EF
:103BD00046977C018E01015F1F4F9E01275E3F4F7C
:103BE000AE01455E5F4FBE016F5D7F4F86EC97E093
:103BF000D2D869827A828B829C8282E58BA3C601AD
:103C00004C977C010A5011099E012D5E3F4FAE0179
:103C10004F5E5F4F74C191E02916310409F04BC02B
:103C200084E190E09E838D8385E190E098878F8387
:103C300086E090E09A8B898B84E090E09C8B8B8B64
:103C400085E090E09E8F8D8F83E190E09A87898751
:103C500082E190E09C878B8789E090E09E8B8D8B42
:103C600087E090E0988F8F8B88E090E098A38F8F0B
:103C700082E090E09E878D8783E090E0988B8F872D
:103C80008AE090E09A8F898F8BE090E09C8F8B8FF9
:103C90008CE090E09AA389A38FEF9FEF98A78FA362
:103CA0009EA38DA344244A94542C9CE39EA71DE319
:103CB000212E312C67CF92E029163104C9F584E119
:103CC00090E09E838D8385E190E098878F8384E0E8
:103CD00090E09A8B898B86E090E09C8B8B8B85E0C3
:103CE00090E09E8F8D8F83E190E09A87898782E1B3
:103CF00090E09C878B8787E090E09E8B8D8B89E09E
:103D000090E0988F8F8B88E090E098A38F8F3E860D
:103D10002D8683E090E0988B8F878BE090E09A8FE0
:103D2000898F8CE090E09C8F8B8F8AE090E0B2CFFF
:103D3000C1010397029708F057C084E190E09E8389
:103D40008D8385E190E098878F8386E090E09A8B61
:103D5000898B84E090E09C8B8B8B85E090E09E8F3C
:103D60008D8F83E190E09A87898782E190E09C873C
:103D70008B8787E090E09E8B8D8B89E090E0988F19
:103D80008F8B88E090E098A38F8F82E090E09E87F1
:103D90008D8783E090E0988B8F878AE090E09A8F00
:103DA000898F8BE090E09C8F8B8F8CE090E09AA3C2
:103DB00089A38FE290E098A78FA38EE290E09EA364
:103DC0008DA3FDE24F2E512C95E49EA7A4E42A2E4C
:103DD000312C8BE290E09CA78BA79AE29DA789E209
:103DE0008CA388E290E0D8CE96E029163104E9F55C
:103DF00084E190E09E838D8385E190E098878F83B6
:103E000084E090E09A8B898B85E090E09C8B8B8B93
:103E10003E8E2D8E83E190E09A87898782E190E043
:103E20009C878B8787E090E09E8B8D8B88E090E06D
:103E3000988F8F8B89E090E098A38F8F90934C039D
:103E400080934B0382E090E09E878D8783E090E033
:103E5000988B8F878BE090E09A8F898F8CE090E031
:103E60009C8F8B8F8AE090E0A2CF8AEB97E00E9434
:103E7000CE0F8CE496E014DE81E080937503FFCFD3
:103E80008CE48BA3CE0101965C0182966C0146976F
:103E90007C018E01015F1F4F9E01255E3F4FAE01E9
:103EA000475E5F4FA0CE8111EBC08CE48BA3CE01A7
:103EB00001965C0182966C0144977C018E01035F40
:103EC0001F4F9E01255E3F4FAE01475E5F4FBE0113
:103ED0006F5D7F4F86EC97E00E94CB1669827A82F5
:103EE0008B829C8282E58BA3C6014E977C01065093
:103EF00011099E012F5E3F4FAE014D5E5F4FBE0127
:103F0000635E7F4F87EB96E00E94CB1680E197E2DD
:103F1000A0E0B0E089839A83AB83BC838AE58BA35E
:103F2000CE0101965C0182966C014A977C018E015C
:103F3000055F1F4F9E01295E3F4FAE014B5E5F4FF5
:103F4000BE01615E7F4F88EA95E00E94CB168DEF3F
:103F5000882E83E0982E99EFA92E93E0B92E25EFB5
:103F6000C22E23E0D22E31EFE32E33E0F32E0DEEFE
:103F700013E029EE33E045EE53E061EE73E086ECAA
:103F800097E04CDA29EE33E045EE53E061EE73E062
:103F900087EB96E043DA4DE1842E44E0942E59E11C
:103FA000A52E54E0B52E65E1C62E64E0D62E71E153
:103FB000E72E74E0F72E0DE014E029E034E045E050
:103FC00054E061E074E088EA95E028DA89A59AA5D2
:103FD00090934A03809349039CA1909365031092A8
:103FE00066038BA59CA5909371038093700361E099
:103FF0008CA10E94A40C60E08CA10E94770C60E070
:104000008DA50E94A40C2114310421F060E0822DC2
:104010000E94A40C60E08EA50E94A40C1414150448
:1040200024F460E0842D0E94A40C8DA19EA118169A
:10403000190624F460E08DA10E94A40C8FA198A51C
:104040001816190624F460E08FA10E94A40CAE9605
:104050000FB6F894DEBF0FBECDBFDF91CF911F9199
:104060000F91FF90EF90DF90CF90BF90AF909F9017
:104070008F907F906F905F904F903F902F9008951A
:104080008CE48BA3CE0101965C0182966C0144976F
:104090007C018E01035F1F4F9E01255E3F4FAE01E5
:1040A000475E5F4FBE016F5D7F4F86EC97E00E94D9
:1040B000CB1669827A828B829C8282E58BA3C601B1
:1040C0004E977C01065011099FCDCF93DF930E943C
:1040D000120FEC01E2DC8C0F9D1FDF91CF91089550
:1040E0008F929F92AF92BF920F931F93CF93DF93C4
:1040F000CDB7DEB7A1970FB6F894DEBF0FBECDBF28
:1041000019A2423008F44AE08E010F5D1F4F842E41
:10411000912CB12CA12CA50194010E94FE70E62FD8
:10412000B901CA01EA30ECF4E05DD801EE938D01EB
:10413000232B242B252B79F790E080E0109711F0AA
:10414000CD019EDCA1960FB6F894DEBF0FBECDBFA9
:10415000DF91CF911F910F91BF90AF909F908F9063
:104160000895E95CE2CFCF92DF92EF92FF92CF9376
:10417000DF936C01990FEE08FF08F7FE16C08DE281
:104180000E94E80FEC0166277727CB016C197D09A7
:104190008E099F094AE0A4DF8C0F9D1FDF91CF910C
:1041A000FF90EF90DF90CF9008954AE0C701B601ED
:1041B000DF91CF91FF90EF90DF90CF9091CFCF9391
:1041C000DF93D1DFEC0169DC8C0F9D1FDF91CF9174
:1041D0000895CF93811104C087E794E0CF9160CC1C
:1041E000C82F8FE694E00E94CE0FC330C1F080F458
:1041F0008DE594E0C23091F382ED93E00E94CE0F02
:104200006C2F70E090E080E04AE06ADFCF9145CC0F
:10421000C73041F08EE094E0CD3001F3EDCF8BE478
:1042200094E0DCCF84EE93E0D9CF4F925F926F920F
:104230007F928F929F92AF92BF92CF92DF92EF9236
:10424000FF920F931F93CF936B017C01742EAC01EF
:104250009B010E944074882391F08FE592E0CF91FA
:104260001F910F91FF90EF90DF90CF90BF90AF9094
:104270009F908F907F906F905F904F9001CC460100
:104280005701E894B7F82FEF3FEF4FE75FE7C5011D
:10429000B4010E94407481110DC02FEF3FEF4FE732
:1042A0005FE7C501B4010E94A06F18161CF483E6F5
:1042B00092E0D5CF2FEF3FEF4FE75FE4C701B601A4
:1042C0000E94337318161CF487E692E0C8CF2FEFD4
:1042D0003FEF4FE75FECC701B6010E94A06F87FD7B
:1042E000F3CF20E030E0A901C701B6010E94A06F22
:1042F00010E000E087FF08C08DE20E94E80F8C010B
:10430000F7FAF094F7F8F094C0E060E070E080E035
:104310009FE37C1641F020E030E040E251E40E944F
:104320001072CF5FF6CFA70196010E9430712B016A
:104330003C010E947D724B015C014AE0D1DE7C01B0
:10434000E00EF11ECC23A9F1C501B4010E94A46FB7
:104350009B01AC01C301B2010E942F714B015C01B2
:104360008EE20E94E80FE80EF91EC15010F120E025
:1043700030E040E251E4C501B4010E9405702B0118
:104380003C010E947D724B01B12CA12C4AE0C50179
:10439000B401A6DEE80EF91EC501B4010E94A46FA7
:1043A0009B01AC01C301B2010E942F714B015C0162
:1043B000DCCFC701CF911F910F91FF90EF90DF905D
:1043C000CF90BF90AF909F908F907F906F905F90B5
:1043D0004F9008952ACFCF92DF92EF92FF920F93E2
:1043E0001F93CF93DF93EC01CB01BA017901A901AF
:1043F00098010E942F7144E050E0ECDF80E198E0EA
:104400000E94CE0FFE01E454FF4F608171818281D2
:104410009381E35BFF4F0190F081E02D208131819A
:10442000428153810E940570A70198010E942F715B
:1044300044E050E0CFDF8EE098E00E94CE0FFE0116
:10444000E054FF4F608171818281938144E050E0AC
:10445000C1DF8CE098E00E94CE0FFE01EF59FF4FC4
:10446000608171818281938144E050E0B3DF8AE012
:1044700098E00E94CE0FC55BDF4F88819981DF9164
:10448000CF911F910F91FF90EF90DF90CF9097CE3B
:10449000CF93DF9342E0C9DEEC01FFDA8C0F9D1F62
:1044A000DF91CF910895CF93DF93EADAEC01F5DA4B
:1044B0008C0F9D1FDF91CF9108952F923F924F92C5
:1044C0005F926F927F928F929F92AF92BF92CF92A4
:1044D000DF92EF92FF920F931F93CF93DF9300D061
:1044E0001F92CDB7DEB71B018A01FC0140805180CD
:1044F00062807380C090DF04D090E004E090E1041B
:10450000F090E204A3019201C301B2010E94057080
:104510004B015C01A7019601C701B6010E9405701D
:104520009B01AC01C501B4010E942F710E94DF7391
:1045300069837A838B839C83F80160817181828196
:1045400093810E94D5734B015C01A701960169819B
:104550007A818B819C810E9410726B017C01209179
:10456000EF043091F0044091F1045091F204C30142
:10457000B2010E9430712B013C01EBEDF4E020818F
:10458000318142815381C501B4010E9405709B01B4
:10459000AC01C301B2010E942F71F1012081318170
:1045A000428153810E9410729B01AC01C701B60188
:1045B0000E942F710F900F900F900F90DF91CF916D
:1045C0001F910F91FF90EF90DF90CF90BF90AF9031
:1045D0009F908F907F906F905F904F903F902F9023
:1045E00008954F925F926F927F928F929F92AF92B7
:1045F000BF92CF92DF92EF92FF920F931F93CF93D0
:10460000DF93CBEDD4E08DEC9CECACE4BEEB89A366
:104610009AA3ABA3BCA301EA13E0F80180889188B8
:10462000A288B38820E030E040E05FE3C501B40138
:104630000E940570F801C488D588E688F7889B0138
:10464000AC010E9405702B013C01A7019601C70136
:10465000B6010E9405709B01AC01C301B2010E942A
:1046600030710E94DF73688379838A839B83A701FB
:104670009601C701B6010E943071A50194010E9404
:1046800010720E94E5716B017C01CDAADEAAEFAA2F
:10469000F8AE2DEC3CEC4CE45EE30E94307169AF67
:1046A0007AAF8BAF9CAF2DEC3CEC4CE45EE3C701E2
:1046B000B6010E942F7160931805709319058093BD
:1046C0001A0590931B0520E030E040E05FE3F8011D
:1046D00060817181828193810E94057068877987EA
:1046E0008A879B8720E030E040E05FE3F801648147
:1046F0007581868197810E9405706B017C01CC8653
:10470000DD86EE86FF8620E030E040E05FE3F801E2
:1047100060857185828593850E940570688F798F89
:104720008A8F9B8FA7019601F80164857585868520
:1047300097850E9430716C8F7D8F8E8F9F8FDF9158
:10474000CF911F910F91FF90EF90DF90CF90BF908E
:10475000AF909F908F907F906F905F904F90089553
:104760002F923F924F925F926F927F928F929F9281
:10477000AF92BF92CF92DF92EF92FF920F931F936F
:10478000CF93DF93CDB7DEB7CB56D1090FB6F894F0
:10479000DEBF0FBECDBF3B018D8B9987522E432EBE
:1047A0004D8759A3A4961FAF0EAFA497A696FFAE50
:1047B000EEAEA697C090E304D090E404E090E50448
:1047C000F090E604D701C601B058898B9A8BAB8B69
:1047D000BC8B8091BD038090E7049090E804A0908A
:1047E000E904B090EA049091DF04998FA091E0046D
:1047F000AD8F2090E1043090E20429893A894B89F9
:104800005C89813011F00C945A2E8D8999850E9413
:10481000A06F87FD0FC0A7019601B3018D8999850F
:104820000E943373181614F00C94452CC98ADA8A46
:10483000EB8AFC8A75016401F7FAF094F7F8F094BA
:10484000A7019601652D742D8D8599A10E94A06FF9
:1048500087FD10C0A5019401652D742D8D8599A14A
:104860000E94337375016401181624F0C52CD42CF2
:10487000ED84F9A02091AD033091AE034091AF03D8
:104880005091B003C501B4010E943071A701960197
:104890000E942F716D8B7E8B8F8B988F6093EF04AE
:1048A0007093F0048093F1049093F2048091A90333
:1048B0009091AA03A091AB03B091AC0321968CAF69
:1048C0009DAFAEAFBFAF219720E030E040E05FE3A7
:1048D000BC01CD010E9405706B017C0129893A89D8
:1048E0004B895C890E9430714B015C018092EB0422
:1048F0009092EC04A092ED04B092EE04AC019B0106
:10490000C701B6010E94A06F87FFC8C7A501940127
:1049100021966CAD7DAD8EAD9FAD21970E942F711C
:104920006093EB047093EC048093ED049093EE0499
:1049300081E08093FB048091EB049091EC04A091C2
:10494000ED04B091EE04898B9A8BAB8BBC8B9C01F0
:10495000AD016D897E898F89988D0E9410724B01FF
:104960005C018092000590920105A0920205B09230
:10497000030529893A894B895C8921966CAD7DAD07
:104980008EAD9FAD21970E942F719B01AC016D8967
:104990007E898F89988D0E9410726B017C01C09274
:1049A0000405D0920505E0920605F0920705A501E1
:1049B0009401C501B4010E94057020E030E040E898
:1049C0005FE30E9430710E94DF739B01AC01698D2F
:1049D0007D8DC1010E9405706093080570930905E3
:1049E00080930A0590930B05A7019601C701B601B4
:1049F0000E94057020E030E040E85FE30E943071E3
:104A00000E94DF739B01AC01698D7D8DC1010E9405
:104A1000057060930C0570930D0580930E059093BF
:104A20000F059BE066969FAF66978091FC0490917E
:104A3000FD04A091FE04B091FF0489A39AA3ABA347
:104A4000BCA39C01AD01CD01B9010E9405704B01D1
:104A50005C012FE632E143E85AE369A17AA18BA118
:104A60009CA10E9430716B017C01AC019B010E94F2
:104A7000057069AF7AAF8BAF9CAF809114059091B0
:104A80001505A0911605B091170589879A87AB8700
:104A9000BC879C01AD01CD01B9010E94057069A7D9
:104AA0007AA78BA79CA79B01AC0169857A858B852A
:104AB0009C850E94057025966CAF7DAF8EAF9FAF31
:104AC0002597409018055090190560901A05709030
:104AD0001B05A3019201C301B2010E9405706DA7DD
:104AE0007EA78FA798AB9B01AC01C301B2010E94C6
:104AF000057029966CAF7DAF8EAF9FAF29972FE6DB
:104B000032E143E85AE369857A858B859C850E946A
:104B10002F716D877E878F87988B9B01AC010E94D8
:104B2000057069AB7AAB8BAB9CAB9B01AC016D851F
:104B30007E858F8598890E9405702D966CAF7DAF1C
:104B40008EAF9FAF2D972FE632E143E85AE3C301C2
:104B5000B2010E9430716DA37EA38FA398A79B0121
:104B6000AC010E9405706DAB7EAB8FAB98AF9B0123
:104B7000AC016DA17EA18FA198A50E9405706196E0
:104B80006CAF7DAF8EAF9FAF6197A501940169A116
:104B90007AA18BA19CA10E94057028E73AE745E223
:104BA0005EEB0E94057065966CAF7DAF8EAF9FAFD8
:104BB000659727E230EA49E05BE3C501B4010E9452
:104BC00005709B01AC0165966CAD7DAD8EAD9FAD62
:104BD00065970E942F714B015C012EE836E040E89A
:104BE0005FE369A17AA18BA19CA10E9405709B0142
:104BF000AC01C501B4010E943071609388057093C7
:104C0000890580938A0590938B0529AD3AAD4BAD0C
:104C10005CADC701B6010E94057028E73AE745E29E
:104C20005EEB0E9405704B015C0127E230EA49E02F
:104C30005BE369AD7AAD8BAD9CAD0E9405709B01C5
:104C4000AC01C501B4010E942F714B015C012EE83B
:104C500036E040E85FE3C701B6010E9405709B01A2
:104C6000AC01C501B4010E94307160938C05709352
:104C70008D0580938E0590938F052EEE3BEE40ECD4
:104C80005DEB25966CAD7DAD8EAD9FAD25970E94F9
:104C900005706B017C012DE435E14CE05EE369A514
:104CA0007AA58BA59CA50E9405709B01AC01C7014C
:104CB000B6010E942F716B017C012DE13AE54CE8B1
:104CC0005FE369857A858B859C850E9405709B01D1
:104CD000AC01C701B6010E9430712DE53DE645ECFF
:104CE0005CE30E942F716E966CAF7DAF8EAF9FAF6D
:104CF0006E97609368057093690580936A05909339
:104D00006B0523E83FE24CE05EE325966CAD7DAD9C
:104D10008EAD9FAD25970E9405706B017C012DEE35
:104D20003DE04EE25FE369A57AA58BA59CA50E94B4
:104D300005709B01AC01C701B6010E942F716B0188
:104D40007C0121ED31E94CED5DE369857A858B8548
:104D50009C850E9405709B01AC01C701B6010E94B1
:104D600030712CEE30EC49E75FE30E94307169A7A7
:104D70007AA78BA79CA760936C0570936D058093B1
:104D80006E0590936F0526E031E845E15EEB2996CC
:104D90006CAD7DAD8EAD9FAD29970E9405706B0106
:104DA0007C0125EE31E641EA5CE36DA57EA58FA589
:104DB00098A90E9405709B01AC01C701B6010E9431
:104DC0002F716B017C0123ED3EED40E85FE3C301F1
:104DD000B2010E9405709B01AC01C701B6010E949F
:104DE000307127E137EB41E55AE30E942F71A2961B
:104DF0006CAF7DAF8EAF9FAFA2976093700570933D
:104E0000710580937205909373052CE933E342EAB0
:104E10005DE329966CAD7DAD8EAD9FAD29970E9467
:104E200005706B017C0126E73FE44EE05FE36DA572
:104E30007EA58FA598A90E9405709B01AC01C701B2
:104E4000B6010E942F716B017C012DE435E14CE825
:104E50005CE3C301B2010E9405709B01AC01C70174
:104E6000B6010E9430712BE733E84FE75FE30E9401
:104E700030712B013C01409274055092750560928F
:104E80007605709277052EEE3BEE40EC5DEB2D96AD
:104E90006CAD7DAD8EAD9FAD2D970E9405706B0101
:104EA0007C012DE435E14CE05EE369A97AA98BA988
:104EB0009CA90E9405709B01AC01C701B6010E942C
:104EC0002F716B017C012DE13AE54CE85FE36D85C4
:104ED0007E858F8598890E9405709B01AC01C70172
:104EE000B6010E9430712DE53DE645EC5CE30E9481
:104EF0002F71609378057093790580937A0590936C
:104F00007B0523E83FE24CE05EE32D966CAD7DAD82
:104F10008EAD9FAD2D970E9405706B017C012DEE2B
:104F20003DE04EE25FE369A97AA98BA99CA90E94A2
:104F300005709B01AC01C701B6010E942F716B0186
:104F40007C0121ED31E94CED5DE36D857E858F853A
:104F500098890E9405709B01AC01C701B6010E94AF
:104F600030712CEE30EC49E75FE30E9430716DA7A1
:104F70007EA78FA798AB60937C0570937D05809387
:104F80007E0590937F0526E031E845E15EEB619672
:104F90006CAD7DAD8EAD9FAD61970E9405706B01CC
:104FA0007C0125EE31E641EA5CE36DA97EA98FA97B
:104FB00098AD0E9405709B01AC01C701B6010E942B
:104FC0002F716B017C0123ED3EED40E85FE36DA1A5
:104FD0007EA18FA198A50E9405709B01AC01C7011D
:104FE000B6010E94307127E137EB41E55AE30E9498
:104FF0002F71609380057093810580938205909353
:1050000083052CE933E342EA5DE361966CAD7DAD47
:105010008EAD9FAD61970E9405706B017C0126E704
:105020003FE44EE05FE36DA97EA98FA998AD0E9491
:1050300005709B01AC01C701B6010E942F716B0185
:105040007C012DE435E14CE85CE36DA17EA18FA1EC
:1050500098A50E9405709B01AC01C701B6010E9492
:1050600030712BE733E84FE75FE30E94307169ABA3
:105070007AAB8BAB9CAB6093840570938505809372
:1050800086059093870564E7C62E65E0D62E70E707
:10509000E72E75E0F72E0CE615E028E635E048E847
:1050A00055E06CE075E088E095E00E944C0A4B0109
:1050B0005C01DC01CB01B05880934C0590934D0509
:1050C000A0934E05B0934F058091DB049091DC04D2
:1050D000A091DD04B091DE0489879A87AB87BC87F5
:1050E00029A53AA54BA55CA5BC01CD010E94057080
:1050F0002D966CAF7DAF8EAF9FAF2D979B01AC010E
:1051000069897A898B899C890E942F716DA37EA3FE
:105110008FA398A769837A838B839C8348E655E0A5
:10512000BE016F5F7F4F88E095E0C7D96D877E87AE
:105130008F87988BDC01CB01B058809350059093FA
:105140005105A0935205B0935305A30192016985BF
:105150007A858B859C850E94057061966CAF7DAFCA
:105160008EAF9FAF61979B01AC0169897A898B896A
:105170009C890E9430719B01AC0121966CAD7DAD84
:105180008EAD9FAD21970E942F7169A77AA78BA73B
:105190009CA769837A838B839C83A701BE016F5F81
:1051A0007F4F8CE095E089D92B013C01DC01CB01DC
:1051B000B0588093540590935505A0935605B0932D
:1051C000570520E030E0A901C501B4010E94A06F9D
:1051D00087FF67C32FE632E143E85AEBC501B4010C
:1051E0000E94337318160CF466C324E8C22E25E01F
:1051F000D22E30E8E32E35E0F32E0CE715E028E759
:1052000035E04CE855E06CE075E088E095E00E9400
:105210004C0AA50194010E942F712FE632E143E868
:105220005AE30E94107260931C0570931D058093D1
:105230001E0590931F058091080590910905A09186
:105240000A05B0910B0565968CAF9DAFAEAFBFAFB1
:1052500065972AE037ED43E25CE3BC01CD010E9493
:1052600030716DAB7EAB8FAB98AF69837A838B83E4
:105270009C8344E7C42E45E0D42E50E7E52E55E04C
:10528000F52E0CE615E028E635E048E855E06CE040
:1052900075E0CE0101960E944C0AA50194010E947E
:1052A0002F712AE037ED43E25CE30E9410726093B5
:1052B000200570932105809322059093230580910A
:1052C0000C0590910D05A0910E05B0910F056A9601
:1052D0008CAF9DAFAEAFBFAF6A972AE037ED43E228
:1052E0005CE3BC01CD010E94307169AF7AAF8BAF36
:1052F0009CAF69837A838B839C8328E635E048E8FA
:1053000055E0BE016F5F7F4F88E095E00E944C0A38
:10531000A50194010E942F712AE037ED43E25CE37E
:105320000E941072609324057093250580932605D2
:10533000909327052DA53EA54FA558A969857A8587
:105340008B859C850E9405709B01AC0169897A89D7
:105350008B899C890E942F7169837A838B839C83BC
:1053600048E755E0BE016F5F7F4F88E095E0A5D824
:105370002D853E854F8558890E942F712FE632E199
:1053800043E85AE30E941072609328057093290540
:1053900080932A0590932B058DA19EA1AFA1B8A55E
:1053A0008D839E83AF83B8878DA99EA9AFA9B8AD21
:1053B00089839A83AB83BC8348E655E0BE016B5F6B
:1053C0007F4FCE01019679D82D853E854F8558892E
:1053D0000E942F712AE037ED43E25CE30E941072D5
:1053E00060932C0570932D0580932E0590932F05C7
:1053F000109230051092310510923205109233054B
:1054000029A93AA94BA95CA969857A858B859C85D0
:105410000E94057029893A894B895C890E94307104
:105420009B01AC0121966CAD7DAD8EAD9FAD2197FA
:105430000E942F716B017C01C982DA82EB82FC82AF
:1054400040E855E0BE016F5F7F4F8CE095E035D8B6
:10545000A30192010E942F712FE632E143E85AE343
:105460000E94107260933405709335058093360561
:1054700090933705109238051092390510923A052D
:1054800010923B05CD82DE82EF82F88689AD9AAD1F
:10549000ABADBCAD89839A83AB83BC8340E755E059
:1054A000BE016B5F7F4FCE01019607D8A301920129
:1054B0000E942F712AE037ED43E25CE30E941072F4
:1054C00060933C0570933D0580933E0590933F05A6
:1054D000A4E2B5E0BE87AD87ECE3F5E0FEABEDAB53
:1054E00028E130E03AAF29AF82E090E09EA78DA797
:1054F000EDA5FEA53196A896FFAFEEAFA8972CE4D8
:1055000035E023963FAF2EAF23978D859E85279656
:105510009FAF8EAF279794E0692E712C1AAA19AA13
:10552000A9ADBAAD1897AC96BFAFAEAFAC97EDA929
:10553000FEA920813181428153812796AEADBFAD56
:1055400027976D917D918D919C910E9410726B01B6
:105550007C0180E2482E85E0582E4618570801E06D
:1055600010E0F20181909190A190B1902F019F01E4
:1055700024503109AA963FAF2EAFAA97F301E40D4C
:10558000F51DAC968EAD9FADAC97E80FF91F20814D
:10559000318142815381C701B6010E9405709B0190
:1055A000AC01C501B4010E942F71AA96AEADBFAD8A
:1055B000AA976D937D938D939C9313970F5F1F4FC5
:1055C000A896EEADFFADA897E017F10754F6239625
:1055D000AEADBFAD23978D909D90AD90BD902396BD
:1055E000BFAFAEAF23978D0104501109ED85FE8545
:1055F00020A931A942A953A9C701B6010E9405708B
:105600009B01AC01C501B4010E942F71D8016D93BB
:105610007D938D939C931397E9A9FAA93196FAABE0
:10562000E9AB27962EAD3FAD2797245F3F4F2796D6
:105630003FAF2EAF27973CE0631A71088DA59EA55A
:105640008E179F0709F073CFA9ADBAAD1C97BAAFFB
:10565000A9AFED85FE853497FE87ED872DA93EA97C
:10566000205131093EAB2DAB019709F00DC32091BC
:105670001C0530911D0540911E0550911F0560913C
:105680004C0570914D0580914E0590914F050E94FB
:1056900010726B017C01C0924005D0924105E092EE
:1056A0004205F09243058090500590905105A090DE
:1056B0005205B0905305209128053091290540915D
:1056C0002A0550912B050E9405709B01AC01C50174
:1056D000B4010E942F7120912C0530912D0540912D
:1056E0002E0550912F050E9410724B015C01809293
:1056F000440590924505A0924605B092470540901A
:1057000054055090550560905605709057052091AE
:105710003405309135054091360550913705C70164
:10572000B6010E9405709B01AC01C301B2010E9449
:105730002F712B013C0120913805309139054091A2
:105740003A0550913B05C501B4010E9405709B01CB
:10575000AC01C301B2010E942F7120913C05309130
:105760003D0540913E0550913F050E9410722B016E
:105770003C01409248055092490560924A0570925A
:105780004B05A701960169A17AA18BA19CA10E945A
:1057900030716B017C01C092FC04D092FD04E09258
:1057A000FE04F092FF0465962CAD3DAD4EAD5FADAD
:1057B0006597C501B4010E9430715B018C019B01AA
:1057C000AC01698D7D8DC1010E94337318161CF4E4
:1057D000A98CBD8C8101C501D801809308059093E7
:1057E0000905A0930A05B0930B05A30192016A96DF
:1057F0006CAD7DAD8EAD9FAD6A970E9430715B013F
:105800008C019B01AC01698D7D8DC1010E943373B8
:1058100018161CF4A98CBD8C8101C501D801809398
:105820000C0590930D05A0930E05B0930F05809085
:10583000100590901105A0901205B0901305A701D6
:105840009601C501B4010E942F71609314057093F5
:1058500015058093160590931705A5019401C701BE
:10586000B6010E94307160931805709319058093FA
:105870001A0590931B0566963FAD66973150669664
:105880003FAF66973111D1C842C0C301AD89B98518
:10589000898B9A8BAB8BBC8B0C941A241092FB04D3
:1058A0004AC82FE632E143E85AE3C501B4010E9439
:1058B000A06F87FF9ACC20E030E0A9016D857E853E
:1058C0008F8598890E94A06F87FFC6C12FE632E1BD
:1058D00043E85AEB6D857E858F8598890E943373E6
:1058E00018160CF082CC20E030E0A901C301B2010F
:1058F0000E94A06F87FFBDC12FE632E143E85AEB5B
:10590000C301B2010E94337318160CF06ECC2D96B1
:105910008CAD9DADAEADBFAD2D97809358059093E6
:105920005905A0935A05B0935B0561968CAD9DAD6A
:10593000AEADBFAD619780935C0590935D05A0937C
:105940005E05B0935F056E962CAD3DAD4EAD5FAD7F
:105950006E9769857A858B859C850E9405704B01C1
:105960005C018092600590926105A0926205B09200
:105970006305A2962CAD3DAD4EAD5FADA297698596
:105980007A858B859C850E940570698B7A8B8B8BC1
:105990009C8B609364057093650580936605909376
:1059A0006705409008055090090560900A057090C1
:1059B0000B05A50194016D897E898F89988D0E94C0
:1059C0002F71A30192010E9430712DA13EA14FA120
:1059D00058A50E9410726B017C01C0920005D09204
:1059E0000105E0920205F092030580910C0590916B
:1059F0000D05A0910E05B0910F058D879E87AF878D
:105A0000B88B29893A894B895C896D897E898F8910
:105A1000988D0E942F712D853E854F8558890E9453
:105A2000307129A53AA54BA55CA50E941072698723
:105A30007A878B879C876093040570930505809314
:105A4000060590930705C701B6010E94E57169A399
:105A50007AA38BA39CA36093940570939505809380
:105A600096059093970569857A858B859C850E941C
:105A7000E57121966CAF7DAF8EAF9FAF219760939C
:105A80009005709391058093920590939305A301DF
:105A900092016D897E898F89988D0E943071A50150
:105AA00094010E942F714B015C012DA13EA14FA1D9
:105AB00058A5CA01B9010E9405702B013C01A5013E
:105AC0009401C501B4010E9405709B01AC01C301A2
:105AD000B2010E9430710E94DF734B015C01A7018B
